{
  "address": "0xc525450b634176cCEdF89Ca224F97a16d097aaFa",
  "abi": [
    {
      "anonymous": false,
      "inputs": [
        {
          "indexed": false,
          "internalType": "uint256",
          "name": "id",
          "type": "uint256"
        },
        {
          "indexed": false,
          "internalType": "string",
          "name": "name",
          "type": "string"
        },
        {
          "indexed": false,
          "internalType": "uint256",
          "name": "dueDate",
          "type": "uint256"
        },
        {
          "indexed": false,
          "internalType": "string",
          "name": "status",
          "type": "string"
        },
        {
          "indexed": false,
          "internalType": "address",
          "name": "owner",
          "type": "address"
        }
      ],
      "name": "TaskCreated",
      "type": "event"
    },
    {
      "anonymous": false,
      "inputs": [
        {
          "indexed": false,
          "internalType": "uint256",
          "name": "id",
          "type": "uint256"
        },
        {
          "indexed": false,
          "internalType": "address",
          "name": "owner",
          "type": "address"
        }
      ],
      "name": "TaskDeleted",
      "type": "event"
    },
    {
      "anonymous": false,
      "inputs": [
        {
          "indexed": false,
          "internalType": "uint256",
          "name": "id",
          "type": "uint256"
        },
        {
          "indexed": false,
          "internalType": "string",
          "name": "newStatus",
          "type": "string"
        }
      ],
      "name": "TaskStatusChanged",
      "type": "event"
    },
    {
      "inputs": [
        {
          "internalType": "uint256",
          "name": "_id",
          "type": "uint256"
        },
        {
          "internalType": "string",
          "name": "_status",
          "type": "string"
        }
      ],
      "name": "changeTaskStatus",
      "outputs": [],
      "stateMutability": "nonpayable",
      "type": "function"
    },
    {
      "inputs": [
        {
          "internalType": "string",
          "name": "_name",
          "type": "string"
        },
        {
          "internalType": "uint256",
          "name": "_dueDate",
          "type": "uint256"
        }
      ],
      "name": "createTask",
      "outputs": [],
      "stateMutability": "nonpayable",
      "type": "function"
    },
    {
      "inputs": [
        {
          "internalType": "uint256",
          "name": "_id",
          "type": "uint256"
        }
      ],
      "name": "deleteTask",
      "outputs": [],
      "stateMutability": "nonpayable",
      "type": "function"
    },
    {
      "inputs": [],
      "name": "getAllTasks",
      "outputs": [
        {
          "components": [
            {
              "internalType": "uint256",
              "name": "id",
              "type": "uint256"
            },
            {
              "internalType": "string",
              "name": "name",
              "type": "string"
            },
            {
              "internalType": "uint256",
              "name": "dueDate",
              "type": "uint256"
            },
            {
              "internalType": "string",
              "name": "status",
              "type": "string"
            },
            {
              "internalType": "address",
              "name": "owner",
              "type": "address"
            },
            {
              "internalType": "bool",
              "name": "isDeleted",
              "type": "bool"
            }
          ],
          "internalType": "struct TaskContract.Task[]",
          "name": "",
          "type": "tuple[]"
        }
      ],
      "stateMutability": "view",
      "type": "function"
    },
    {
      "inputs": [
        {
          "internalType": "address",
          "name": "_user",
          "type": "address"
        }
      ],
      "name": "getUserTasks",
      "outputs": [
        {
          "components": [
            {
              "internalType": "uint256",
              "name": "id",
              "type": "uint256"
            },
            {
              "internalType": "string",
              "name": "name",
              "type": "string"
            },
            {
              "internalType": "uint256",
              "name": "dueDate",
              "type": "uint256"
            },
            {
              "internalType": "string",
              "name": "status",
              "type": "string"
            },
            {
              "internalType": "address",
              "name": "owner",
              "type": "address"
            },
            {
              "internalType": "bool",
              "name": "isDeleted",
              "type": "bool"
            }
          ],
          "internalType": "struct TaskContract.Task[]",
          "name": "",
          "type": "tuple[]"
        }
      ],
      "stateMutability": "view",
      "type": "function"
    },
    {
      "inputs": [],
      "name": "taskCount",
      "outputs": [
        {
          "internalType": "uint256",
          "name": "",
          "type": "uint256"
        }
      ],
      "stateMutability": "view",
      "type": "function"
    },
    {
      "inputs": [
        {
          "internalType": "uint256",
          "name": "",
          "type": "uint256"
        }
      ],
      "name": "tasks",
      "outputs": [
        {
          "internalType": "uint256",
          "name": "id",
          "type": "uint256"
        },
        {
          "internalType": "string",
          "name": "name",
          "type": "string"
        },
        {
          "internalType": "uint256",
          "name": "dueDate",
          "type": "uint256"
        },
        {
          "internalType": "string",
          "name": "status",
          "type": "string"
        },
        {
          "internalType": "address",
          "name": "owner",
          "type": "address"
        },
        {
          "internalType": "bool",
          "name": "isDeleted",
          "type": "bool"
        }
      ],
      "stateMutability": "view",
      "type": "function"
    },
    {
      "inputs": [
        {
          "internalType": "address",
          "name": "",
          "type": "address"
        },
        {
          "internalType": "uint256",
          "name": "",
          "type": "uint256"
        }
      ],
      "name": "userTasks",
      "outputs": [
        {
          "internalType": "uint256",
          "name": "",
          "type": "uint256"
        }
      ],
      "stateMutability": "view",
      "type": "function"
    }
  ],
  "transactionHash": "0x8dbfa2f4fc745285f395ac671c9cd7cae9c19b9cc775f13d4a55b5da313c9ef2",
  "args": [],
  "numDeployments": 2,
  "solcInputHash": "96aa7527ae2ab31b95e1e9267397a56f",
  "bytecode": "0x60806040526000805534801561001457600080fd5b50611282806100246000396000f3fe608060405234801561001057600080fd5b50600436106100885760003560e01c8063779900b41161005b578063779900b4146100ee5780638d9776721461010357806395d5766014610128578063b6cb58a51461013b57600080fd5b806304fe2b341461008d5780634ae308a8146100a2578063560f3192146100b557806366873a55146100c8575b600080fd5b6100a061009b366004610d5a565b610144565b005b6100a06100b0366004610d9f565b61028e565b6100a06100c3366004610de6565b6103b4565b6100db6100d6366004610e1b565b610501565b6040519081526020015b60405180910390f35b6100f6610532565b6040516100e59190610e8b565b610116610111366004610de6565b6107c7565b6040516100e596959493929190610f46565b6100f6610136366004610f9b565b61091b565b6100db60005481565b60008054908061015383610fbd565b90915550506040805160c08101825260008054808352602080840187815284860187905285518087018752600b81526a496e2050726f677265737360a81b81840152606086015233608086015260a085018490529183526001908190529390912082518155905191929091908201906101cc908261106d565b5060408201516002820155606082015160038201906101eb908261106d565b5060808201516004909101805460a0909301511515600160a01b026001600160a81b03199093166001600160a01b0390921691909117919091179055336000818152600260209081526040808320835481546001810183559185529284200191909155905490517fecbc028ebfd0cabe130f1534e7438d0246f0680d81353677d7c8a443ff63794a9261028292918691869161112d565b60405180910390a15050565b6000821180156102a057506000548211155b6102c55760405162461bcd60e51b81526004016102bc9061118c565b60405180910390fd5b6000828152600160205260409020600401546001600160a01b031633146102fe5760405162461bcd60e51b81526004016102bc906111d2565b600082815260016020526040902060040154600160a01b900460ff16156103675760405162461bcd60e51b815260206004820152601c60248201527fec82adeca09ceb909c20ed839cec8aa4ed81acec9e85eb8b88eb8ba40000000060448201526064016102bc565b6000828152600160205260409020600301610382828261106d565b507ff96a2a7a1718a6faa1a0c99f68f03569c5b2c7cd271539f6731ddf33996096798282604051610282929190611215565b6000811180156103c657506000548111155b6103e25760405162461bcd60e51b81526004016102bc9061118c565b6000818152600160205260409020600401546001600160a01b0316331461041b5760405162461bcd60e51b81526004016102bc906111d2565b600081815260016020526040902060040154600160a01b900460ff16156104905760405162461bcd60e51b815260206004820152602360248201527fec9db4ebafb820ec82adeca09ceb909c20ed839cec8aa4ed81acec9e85eb8b886044820152623ae2e960ea1b60648201526084016102bc565b60008181526001602052604090819020600401805460ff60a01b1916600160a01b179055517f342ff6c61d8ac95b75821982d3bac415a2f2e4f121b1fccda188bd67d31324b7906104f690839033909182526001600160a01b0316602082015260400190565b60405180910390a150565b6002602052816000526040600020818154811061051d57600080fd5b90600052602060002001600091509150505481565b6060600060015b600054811161058257600081815260016020526040902060040154600160a01b900460ff16610570578161056c81610fbd565b9250505b8061057a81610fbd565b915050610539565b5060008167ffffffffffffffff81111561059e5761059e610cb7565b6040519080825280602002602001820160405280156105d757816020015b6105c4610c76565b8152602001906001900390816105bc5790505b509050600060015b60005481116107be57600081815260016020526040902060040154600160a01b900460ff166107ac57600081815260016020818152604092839020835160c081019094528054845291820180549184019161063990610fe4565b80601f016020809104026020016040519081016040528092919081815260200182805461066590610fe4565b80156106b25780601f10610687576101008083540402835291602001916106b2565b820191906000526020600020905b81548152906001019060200180831161069557829003601f168201915b50505050508152602001600282015481526020016003820180546106d590610fe4565b80601f016020809104026020016040519081016040528092919081815260200182805461070190610fe4565b801561074e5780601f106107235761010080835404028352916020019161074e565b820191906000526020600020905b81548152906001019060200180831161073157829003601f168201915b5050509183525050600491909101546001600160a01b0381166020830152600160a01b900460ff161515604090910152835184908490811061079257610792611236565b602002602001018190525081806107a890610fbd565b9250505b806107b681610fbd565b9150506105df565b50909392505050565b6001602081905260009182526040909120805491810180546107e890610fe4565b80601f016020809104026020016040519081016040528092919081815260200182805461081490610fe4565b80156108615780601f1061083657610100808354040283529160200191610861565b820191906000526020600020905b81548152906001019060200180831161084457829003601f168201915b50505050509080600201549080600301805461087c90610fe4565b80601f01602080910402602001604051908101604052809291908181526020018280546108a890610fe4565b80156108f55780601f106108ca576101008083540402835291602001916108f5565b820191906000526020600020905b8154815290600101906020018083116108d857829003601f168201915b505050600490930154919250506001600160a01b0381169060ff600160a01b9091041686565b6001600160a01b038116600090815260026020908152604080832080548251818502810185019093528083526060949383018282801561097a57602002820191906000526020600020905b815481526020019060010190808311610966575b505050505090506000805b82518110156109ef57600160008483815181106109a4576109a4611236565b6020026020010151815260200190815260200160002060040160149054906101000a900460ff166109dd57816109d981610fbd565b9250505b806109e781610fbd565b915050610985565b5060008167ffffffffffffffff811115610a0b57610a0b610cb7565b604051908082528060200260200182016040528015610a4457816020015b610a31610c76565b815260200190600190039081610a295790505b5090506000805b8451811015610c6b5760016000868381518110610a6a57610a6a611236565b6020026020010151815260200190815260200160002060040160149054906101000a900460ff16610c595760016000868381518110610aab57610aab611236565b602002602001015181526020019081526020016000206040518060c001604052908160008201548152602001600182018054610ae690610fe4565b80601f0160208091040260200160405190810160405280929190818152602001828054610b1290610fe4565b8015610b5f5780601f10610b3457610100808354040283529160200191610b5f565b820191906000526020600020905b815481529060010190602001808311610b4257829003601f168201915b5050505050815260200160028201548152602001600382018054610b8290610fe4565b80601f0160208091040260200160405190810160405280929190818152602001828054610bae90610fe4565b8015610bfb5780601f10610bd057610100808354040283529160200191610bfb565b820191906000526020600020905b815481529060010190602001808311610bde57829003601f168201915b5050509183525050600491909101546001600160a01b0381166020830152600160a01b900460ff1615156040909101528351849084908110610c3f57610c3f611236565b60200260200101819052508180610c5590610fbd565b9250505b80610c6381610fbd565b915050610a4b565b509095945050505050565b6040518060c001604052806000815260200160608152602001600081526020016060815260200160006001600160a01b031681526020016000151581525090565b634e487b7160e01b600052604160045260246000fd5b600082601f830112610cde57600080fd5b813567ffffffffffffffff80821115610cf957610cf9610cb7565b604051601f8301601f19908116603f01168101908282118183101715610d2157610d21610cb7565b81604052838152866020858801011115610d3a57600080fd5b836020870160208301376000602085830101528094505050505092915050565b60008060408385031215610d6d57600080fd5b823567ffffffffffffffff811115610d8457600080fd5b610d9085828601610ccd565b95602094909401359450505050565b60008060408385031215610db257600080fd5b82359150602083013567ffffffffffffffff811115610dd057600080fd5b610ddc85828601610ccd565b9150509250929050565b600060208284031215610df857600080fd5b5035919050565b80356001600160a01b0381168114610e1657600080fd5b919050565b60008060408385031215610e2e57600080fd5b610e3783610dff565b946020939093013593505050565b6000815180845260005b81811015610e6b57602081850181015186830182015201610e4f565b506000602082860101526020601f19601f83011685010191505092915050565b60006020808301818452808551808352604092508286019150828160051b87010184880160005b83811015610f3857603f19898403018552815160c08151855288820151818a870152610ee082870182610e45565b915050878201518886015260608083015186830382880152610f028382610e45565b6080858101516001600160a01b03169089015260a094850151151594909701939093525050509386019390860190600101610eb2565b509098975050505050505050565b86815260c060208201526000610f5f60c0830188610e45565b8660408401528281036060840152610f778187610e45565b6001600160a01b03959095166080840152505090151560a090910152949350505050565b600060208284031215610fad57600080fd5b610fb682610dff565b9392505050565b600060018201610fdd57634e487b7160e01b600052601160045260246000fd5b5060010190565b600181811c90821680610ff857607f821691505b60208210810361101857634e487b7160e01b600052602260045260246000fd5b50919050565b601f82111561106857600081815260208120601f850160051c810160208610156110455750805b601f850160051c820191505b8181101561106457828155600101611051565b5050505b505050565b815167ffffffffffffffff81111561108757611087610cb7565b61109b816110958454610fe4565b8461101e565b602080601f8311600181146110d057600084156110b85750858301515b600019600386901b1c1916600185901b178555611064565b600085815260208120601f198616915b828110156110ff578886015182559484019460019091019084016110e0565b508582101561111d5787850151600019600388901b60f8161c191681555b5050505050600190811b01905550565b84815260a06020820152600061114660a0830186610e45565b6040838101959095528281036060840152600b81526a496e2050726f677265737360a81b60208201526001600160a01b0393909316608090920191909152500192915050565b60208082526026908201527fed839cec8aa4ed81aceab08020eca1b4ec9eaced9598eca78020ec958aec8ab56040820152653ae2e23ae2e960d21b606082015260800190565b60208082526023908201527fed839cec8aa4ed81ac20ec868cec9ca0ec9e90eab08020ec9584eb8b99eb8b886040820152623ae2e960ea1b606082015260800190565b82815260406020820152600061122e6040830184610e45565b949350505050565b634e487b7160e01b600052603260045260246000fdfea2646970667358221220850dfe73bdf449310fd99bbf93e278790331f2028d7845129397329fe599716164736f6c63430008140033",
  "devdoc": {
    "kind": "dev",
    "methods": {
      "changeTaskStatus(uint256,string)": {
        "params": {
          "_id": "  ID",
          "_status": "  (\"In Progress\"  \"Completed\")"
        }
      },
      "createTask(string,uint256)": {
        "params": {
          "_dueDate": "  ()",
          "_name": " "
        }
      },
      "deleteTask(uint256)": {
        "params": {
          "_id": "  ID"
        }
      },
      "getAllTasks()": {
        "returns": {
          "_0": "  "
        }
      },
      "getUserTasks(address)": {
        "params": {
          "_user": " "
        },
        "returns": {
          "_0": "  "
        }
      }
    },
    "title": "  ",
    "version": 1
  },
  "userdoc": {
    "kind": "user",
    "methods": {
      "changeTaskStatus(uint256,string)": {
        "notice": "   "
      },
      "createTask(string,uint256)": {
        "notice": "   "
      },
      "deleteTask(uint256)": {
        "notice": "  "
      },
      "getAllTasks()": {
        "notice": "   "
      },
      "getUserTasks(address)": {
        "notice": "   "
      }
    },
    "notice": "  , ,     ",
    "version": 1
  },
  "storageLayout": {
    "storage": [
      {
        "astId": 19,
        "contract": "contracts/TaskContract.sol:TaskContract",
        "label": "taskCount",
        "offset": 0,
        "slot": "0",
        "type": "t_uint256"
      },
      {
        "astId": 24,
        "contract": "contracts/TaskContract.sol:TaskContract",
        "label": "tasks",
        "offset": 0,
        "slot": "1",
        "type": "t_mapping(t_uint256,t_struct(Task)16_storage)"
      },
      {
        "astId": 29,
        "contract": "contracts/TaskContract.sol:TaskContract",
        "label": "userTasks",
        "offset": 0,
        "slot": "2",
        "type": "t_mapping(t_address,t_array(t_uint256)dyn_storage)"
      }
    ],
    "types": {
      "t_address": {
        "encoding": "inplace",
        "label": "address",
        "numberOfBytes": "20"
      },
      "t_array(t_uint256)dyn_storage": {
        "base": "t_uint256",
        "encoding": "dynamic_array",
        "label": "uint256[]",
        "numberOfBytes": "32"
      },
      "t_bool": {
        "encoding": "inplace",
        "label": "bool",
        "numberOfBytes": "1"
      },
      "t_mapping(t_address,t_array(t_uint256)dyn_storage)": {
        "encoding": "mapping",
        "key": "t_address",
        "label": "mapping(address => uint256[])",
        "numberOfBytes": "32",
        "value": "t_array(t_uint256)dyn_storage"
      },
      "t_mapping(t_uint256,t_struct(Task)16_storage)": {
        "encoding": "mapping",
        "key": "t_uint256",
        "label": "mapping(uint256 => struct TaskContract.Task)",
        "numberOfBytes": "32",
        "value": "t_struct(Task)16_storage"
      },
      "t_string_storage": {
        "encoding": "bytes",
        "label": "string",
        "numberOfBytes": "32"
      },
      "t_struct(Task)16_storage": {
        "encoding": "inplace",
        "label": "struct TaskContract.Task",
        "members": [
          {
            "astId": 5,
            "contract": "contracts/TaskContract.sol:TaskContract",
            "label": "id",
            "offset": 0,
            "slot": "0",
            "type": "t_uint256"
          },
          {
            "astId": 7,
            "contract": "contracts/TaskContract.sol:TaskContract",
            "label": "name",
            "offset": 0,
            "slot": "1",
            "type": "t_string_storage"
          },
          {
            "astId": 9,
            "contract": "contracts/TaskContract.sol:TaskContract",
            "label": "dueDate",
            "offset": 0,
            "slot": "2",
            "type": "t_uint256"
          },
          {
            "astId": 11,
            "contract": "contracts/TaskContract.sol:TaskContract",
            "label": "status",
            "offset": 0,
            "slot": "3",
            "type": "t_string_storage"
          },
          {
            "astId": 13,
            "contract": "contracts/TaskContract.sol:TaskContract",
            "label": "owner",
            "offset": 0,
            "slot": "4",
            "type": "t_address"
          },
          {
            "astId": 15,
            "contract": "contracts/TaskContract.sol:TaskContract",
            "label": "isDeleted",
            "offset": 20,
            "slot": "4",
            "type": "t_bool"
          }
        ],
        "numberOfBytes": "160"
      },
      "t_uint256": {
        "encoding": "inplace",
        "label": "uint256",
        "numberOfBytes": "32"
      }
    }
  }
}