{
  "address": "0x4442980AEfdFE2b256EfEAdfAb705fdA2e1a8EE1",
  "abi": [
    {
      "inputs": [
        {
          "internalType": "address",
          "name": "_tokenAddress",
          "type": "address"
        }
      ],
      "stateMutability": "nonpayable",
      "type": "constructor"
    },
    {
      "anonymous": false,
      "inputs": [
        {
          "indexed": false,
          "internalType": "uint256",
          "name": "id",
          "type": "uint256"
        },
        {
          "indexed": false,
          "internalType": "address",
          "name": "user",
          "type": "address"
        },
        {
          "indexed": false,
          "internalType": "uint256",
          "name": "amount",
          "type": "uint256"
        }
      ],
      "name": "RewardPaid",
      "type": "event"
    },
    {
      "anonymous": false,
      "inputs": [
        {
          "indexed": false,
          "internalType": "uint256",
          "name": "id",
          "type": "uint256"
        },
        {
          "indexed": false,
          "internalType": "string",
          "name": "name",
          "type": "string"
        },
        {
          "indexed": false,
          "internalType": "uint256",
          "name": "dueDate",
          "type": "uint256"
        },
        {
          "indexed": false,
          "internalType": "string",
          "name": "status",
          "type": "string"
        },
        {
          "indexed": false,
          "internalType": "address",
          "name": "owner",
          "type": "address"
        }
      ],
      "name": "TaskCreated",
      "type": "event"
    },
    {
      "anonymous": false,
      "inputs": [
        {
          "indexed": false,
          "internalType": "uint256",
          "name": "id",
          "type": "uint256"
        },
        {
          "indexed": false,
          "internalType": "address",
          "name": "owner",
          "type": "address"
        }
      ],
      "name": "TaskDeleted",
      "type": "event"
    },
    {
      "anonymous": false,
      "inputs": [
        {
          "indexed": false,
          "internalType": "uint256",
          "name": "id",
          "type": "uint256"
        },
        {
          "indexed": false,
          "internalType": "string",
          "name": "newStatus",
          "type": "string"
        }
      ],
      "name": "TaskStatusChanged",
      "type": "event"
    },
    {
      "inputs": [
        {
          "internalType": "uint256",
          "name": "_id",
          "type": "uint256"
        },
        {
          "internalType": "string",
          "name": "_status",
          "type": "string"
        }
      ],
      "name": "changeTaskStatus",
      "outputs": [],
      "stateMutability": "nonpayable",
      "type": "function"
    },
    {
      "inputs": [
        {
          "internalType": "string",
          "name": "_name",
          "type": "string"
        },
        {
          "internalType": "uint256",
          "name": "_dueDate",
          "type": "uint256"
        }
      ],
      "name": "createTask",
      "outputs": [],
      "stateMutability": "nonpayable",
      "type": "function"
    },
    {
      "inputs": [
        {
          "internalType": "uint256",
          "name": "_id",
          "type": "uint256"
        }
      ],
      "name": "deleteTask",
      "outputs": [],
      "stateMutability": "nonpayable",
      "type": "function"
    },
    {
      "inputs": [],
      "name": "getAllTasks",
      "outputs": [
        {
          "components": [
            {
              "internalType": "uint256",
              "name": "id",
              "type": "uint256"
            },
            {
              "internalType": "string",
              "name": "name",
              "type": "string"
            },
            {
              "internalType": "uint256",
              "name": "dueDate",
              "type": "uint256"
            },
            {
              "internalType": "string",
              "name": "status",
              "type": "string"
            },
            {
              "internalType": "address",
              "name": "owner",
              "type": "address"
            },
            {
              "internalType": "bool",
              "name": "isDeleted",
              "type": "bool"
            },
            {
              "internalType": "bool",
              "name": "isRewarded",
              "type": "bool"
            }
          ],
          "internalType": "struct TaskContract.Task[]",
          "name": "",
          "type": "tuple[]"
        }
      ],
      "stateMutability": "view",
      "type": "function"
    },
    {
      "inputs": [
        {
          "internalType": "address",
          "name": "account",
          "type": "address"
        }
      ],
      "name": "getTokenBalance",
      "outputs": [
        {
          "internalType": "uint256",
          "name": "",
          "type": "uint256"
        }
      ],
      "stateMutability": "view",
      "type": "function"
    },
    {
      "inputs": [
        {
          "internalType": "address",
          "name": "_user",
          "type": "address"
        }
      ],
      "name": "getUserTasks",
      "outputs": [
        {
          "components": [
            {
              "internalType": "uint256",
              "name": "id",
              "type": "uint256"
            },
            {
              "internalType": "string",
              "name": "name",
              "type": "string"
            },
            {
              "internalType": "uint256",
              "name": "dueDate",
              "type": "uint256"
            },
            {
              "internalType": "string",
              "name": "status",
              "type": "string"
            },
            {
              "internalType": "address",
              "name": "owner",
              "type": "address"
            },
            {
              "internalType": "bool",
              "name": "isDeleted",
              "type": "bool"
            },
            {
              "internalType": "bool",
              "name": "isRewarded",
              "type": "bool"
            }
          ],
          "internalType": "struct TaskContract.Task[]",
          "name": "",
          "type": "tuple[]"
        }
      ],
      "stateMutability": "view",
      "type": "function"
    },
    {
      "inputs": [],
      "name": "taskCount",
      "outputs": [
        {
          "internalType": "uint256",
          "name": "",
          "type": "uint256"
        }
      ],
      "stateMutability": "view",
      "type": "function"
    },
    {
      "inputs": [],
      "name": "taskToken",
      "outputs": [
        {
          "internalType": "contract TaskToken",
          "name": "",
          "type": "address"
        }
      ],
      "stateMutability": "view",
      "type": "function"
    },
    {
      "inputs": [
        {
          "internalType": "uint256",
          "name": "",
          "type": "uint256"
        }
      ],
      "name": "tasks",
      "outputs": [
        {
          "internalType": "uint256",
          "name": "id",
          "type": "uint256"
        },
        {
          "internalType": "string",
          "name": "name",
          "type": "string"
        },
        {
          "internalType": "uint256",
          "name": "dueDate",
          "type": "uint256"
        },
        {
          "internalType": "string",
          "name": "status",
          "type": "string"
        },
        {
          "internalType": "address",
          "name": "owner",
          "type": "address"
        },
        {
          "internalType": "bool",
          "name": "isDeleted",
          "type": "bool"
        },
        {
          "internalType": "bool",
          "name": "isRewarded",
          "type": "bool"
        }
      ],
      "stateMutability": "view",
      "type": "function"
    },
    {
      "inputs": [
        {
          "internalType": "address",
          "name": "",
          "type": "address"
        },
        {
          "internalType": "uint256",
          "name": "",
          "type": "uint256"
        }
      ],
      "name": "userTasks",
      "outputs": [
        {
          "internalType": "uint256",
          "name": "",
          "type": "uint256"
        }
      ],
      "stateMutability": "view",
      "type": "function"
    }
  ],
  "transactionHash": "0x8474f062318c559cdcadf97bb390ac9f48ab875e36da9c673ac7c2df0bf32c09",
  "args": [
    "0x20a2ea627520B80eFD371AE3137E0C6A80a459ab"
  ],
  "numDeployments": 5,
  "solcInputHash": "98e2ff1c3a901514f11a8600a055d2f2",
  "bytecode": "0x60806040526000805534801561001457600080fd5b5060405161160338038061160383398101604081905261003391610058565b600380546001600160a01b0319166001600160a01b0392909216919091179055610088565b60006020828403121561006a57600080fd5b81516001600160a01b038116811461008157600080fd5b9392505050565b61156c806100976000396000f3fe608060405234801561001057600080fd5b506004361061009e5760003560e01c806367262d8f1161006657806367262d8f14610117578063779900b4146101425780638d9776721461015757806395d576601461017d578063b6cb58a51461019057600080fd5b806304fe2b34146100a35780633aecd0e3146100b85780634ae308a8146100de578063560f3192146100f157806366873a5514610104575b600080fd5b6100b66100b1366004611018565b610199565b005b6100cb6100c6366004611079565b610300565b6040519081526020015b60405180910390f35b6100b66100ec36600461109b565b610375565b6100b66100ff3660046110e2565b61063e565b6100cb6101123660046110fb565b61078b565b60035461012a906001600160a01b031681565b6040516001600160a01b0390911681526020016100d5565b61014a6107bc565b6040516100d5919061116b565b61016a6101653660046110e2565b610a62565b6040516100d59796959493929190611232565b61014a61018b366004611079565b610bbf565b6100cb60005481565b6000805490806101a88361128e565b90915550506040805160e08101825260008054808352602080840187815284860187905285518087018752600b81526a496e2050726f677265737360a81b81840152606086015233608086015260a0850184905260c08501849052918352600190819052939091208251815590519192909190820190610228908261133e565b506040820151600282015560608201516003820190610247908261133e565b5060808201516004909101805460a084015160c0909401511515600160a81b0260ff60a81b19941515600160a01b026001600160a81b03199092166001600160a01b03909416939093171792909216179055336000818152600260209081526040808320835481546001810183559185529284200191909155905490517fecbc028ebfd0cabe130f1534e7438d0246f0680d81353677d7c8a443ff63794a926102f49291869186916113fe565b60405180910390a15050565b6003546040516370a0823160e01b81526001600160a01b03838116600483015260009216906370a0823190602401602060405180830381865afa15801561034b573d6000803e3d6000fd5b505050506040513d601f19601f8201168201806040525081019061036f919061145d565b92915050565b60008211801561038757506000548211155b6103ac5760405162461bcd60e51b81526004016103a390611476565b60405180910390fd5b6000828152600160205260409020600401546001600160a01b031633146103e55760405162461bcd60e51b81526004016103a3906114bc565b600082815260016020526040902060040154600160a01b900460ff161561044e5760405162461bcd60e51b815260206004820152601c60248201527fec82adeca09ceb909c20ed839cec8aa4ed81acec9e85eb8b88eb8ba40000000060448201526064016103a3565b6000828152600160205260409020600301610469828261133e565b5060408051808201909152600981526810dbdb5c1b195d195960ba1b6020918201528151908201207f1bc3aded8cf8a7fe8c493c18a1eb650e5265f44b3b5ac7206f2c987acbd8d7941480156104d85750600082815260016020526040902060040154600160a81b900460ff16155b1561060d5760008281526001602090815260408083206004908101805460ff60a81b1916600160a81b1790556003548251637bd953df60e11b815292516001600160a01b039091169363f7b2a7be9380840193919291908290030181865afa158015610548573d6000803e3d6000fd5b505050506040513d601f19601f8201168201806040525081019061056c919061145d565b60035460405163a6afd7db60e01b81523360048201529192506001600160a01b03169063a6afd7db90602401600060405180830381600087803b1580156105b257600080fd5b505af11580156105c6573d6000803e3d6000fd5b5050604080518681523360208201529081018490527f04492fab062412e7e4e5f46c9e919f1640652946a5e163ad6e6c1c03d87954d29250606001905060405180910390a1505b7ff96a2a7a1718a6faa1a0c99f68f03569c5b2c7cd271539f6731ddf339960967982826040516102f49291906114ff565b60008111801561065057506000548111155b61066c5760405162461bcd60e51b81526004016103a390611476565b6000818152600160205260409020600401546001600160a01b031633146106a55760405162461bcd60e51b81526004016103a3906114bc565b600081815260016020526040902060040154600160a01b900460ff161561071a5760405162461bcd60e51b815260206004820152602360248201527fec9db4ebafb820ec82adeca09ceb909c20ed839cec8aa4ed81acec9e85eb8b886044820152623ae2e960ea1b60648201526084016103a3565b60008181526001602052604090819020600401805460ff60a01b1916600160a01b179055517f342ff6c61d8ac95b75821982d3bac415a2f2e4f121b1fccda188bd67d31324b79061078090839033909182526001600160a01b0316602082015260400190565b60405180910390a150565b600260205281600052604060002081815481106107a757600080fd5b90600052602060002001600091509150505481565b6060600060015b600054811161080c57600081815260016020526040902060040154600160a01b900460ff166107fa57816107f68161128e565b9250505b806108048161128e565b9150506107c3565b5060008167ffffffffffffffff81111561082857610828610f75565b60405190808252806020026020018201604052801561086157816020015b61084e610f2b565b8152602001906001900390816108465790505b509050600060015b6000548111610a5957600081815260016020526040902060040154600160a01b900460ff16610a4757600081815260016020818152604092839020835160e08101909452805484529182018054918401916108c3906112b5565b80601f01602080910402602001604051908101604052809291908181526020018280546108ef906112b5565b801561093c5780601f106109115761010080835404028352916020019161093c565b820191906000526020600020905b81548152906001019060200180831161091f57829003601f168201915b505050505081526020016002820154815260200160038201805461095f906112b5565b80601f016020809104026020016040519081016040528092919081815260200182805461098b906112b5565b80156109d85780601f106109ad576101008083540402835291602001916109d8565b820191906000526020600020905b8154815290600101906020018083116109bb57829003601f168201915b5050509183525050600491909101546001600160a01b038116602083015260ff600160a01b8204811615156040840152600160a81b9091041615156060909101528351849084908110610a2d57610a2d611520565b60200260200101819052508180610a439061128e565b9250505b80610a518161128e565b915050610869565b50909392505050565b600160208190526000918252604090912080549181018054610a83906112b5565b80601f0160208091040260200160405190810160405280929190818152602001828054610aaf906112b5565b8015610afc5780601f10610ad157610100808354040283529160200191610afc565b820191906000526020600020905b815481529060010190602001808311610adf57829003601f168201915b505050505090806002015490806003018054610b17906112b5565b80601f0160208091040260200160405190810160405280929190818152602001828054610b43906112b5565b8015610b905780601f10610b6557610100808354040283529160200191610b90565b820191906000526020600020905b815481529060010190602001808311610b7357829003601f168201915b505050600490930154919250506001600160a01b0381169060ff600160a01b8204811691600160a81b90041687565b6001600160a01b0381166000908152600260209081526040808320805482518185028101850190935280835260609493830182828015610c1e57602002820191906000526020600020905b815481526020019060010190808311610c0a575b505050505090506000805b8251811015610c935760016000848381518110610c4857610c48611520565b6020026020010151815260200190815260200160002060040160149054906101000a900460ff16610c815781610c7d8161128e565b9250505b80610c8b8161128e565b915050610c29565b5060008167ffffffffffffffff811115610caf57610caf610f75565b604051908082528060200260200182016040528015610ce857816020015b610cd5610f2b565b815260200190600190039081610ccd5790505b5090506000805b8451811015610f205760016000868381518110610d0e57610d0e611520565b6020026020010151815260200190815260200160002060040160149054906101000a900460ff16610f0e5760016000868381518110610d4f57610d4f611520565b602002602001015181526020019081526020016000206040518060e001604052908160008201548152602001600182018054610d8a906112b5565b80601f0160208091040260200160405190810160405280929190818152602001828054610db6906112b5565b8015610e035780601f10610dd857610100808354040283529160200191610e03565b820191906000526020600020905b815481529060010190602001808311610de657829003601f168201915b5050505050815260200160028201548152602001600382018054610e26906112b5565b80601f0160208091040260200160405190810160405280929190818152602001828054610e52906112b5565b8015610e9f5780601f10610e7457610100808354040283529160200191610e9f565b820191906000526020600020905b815481529060010190602001808311610e8257829003601f168201915b5050509183525050600491909101546001600160a01b038116602083015260ff600160a01b8204811615156040840152600160a81b9091041615156060909101528351849084908110610ef457610ef4611520565b60200260200101819052508180610f0a9061128e565b9250505b80610f188161128e565b915050610cef565b509095945050505050565b6040518060e001604052806000815260200160608152602001600081526020016060815260200160006001600160a01b031681526020016000151581526020016000151581525090565b634e487b7160e01b600052604160045260246000fd5b600082601f830112610f9c57600080fd5b813567ffffffffffffffff80821115610fb757610fb7610f75565b604051601f8301601f19908116603f01168101908282118183101715610fdf57610fdf610f75565b81604052838152866020858801011115610ff857600080fd5b836020870160208301376000602085830101528094505050505092915050565b6000806040838503121561102b57600080fd5b823567ffffffffffffffff81111561104257600080fd5b61104e85828601610f8b565b95602094909401359450505050565b80356001600160a01b038116811461107457600080fd5b919050565b60006020828403121561108b57600080fd5b6110948261105d565b9392505050565b600080604083850312156110ae57600080fd5b82359150602083013567ffffffffffffffff8111156110cc57600080fd5b6110d885828601610f8b565b9150509250929050565b6000602082840312156110f457600080fd5b5035919050565b6000806040838503121561110e57600080fd5b6111178361105d565b946020939093013593505050565b6000815180845260005b8181101561114b5760208185018101518683018201520161112f565b506000602082860101526020601f19601f83011685010191505092915050565b60006020808301818452808551808352604092508286019150828160051b87010184880160005b8381101561122457603f19898403018552815160e08151855288820151818a8701526111c082870182611125565b9150508782015188860152606080830151868303828801526111e28382611125565b6080858101516001600160a01b03169089015260a08581015115159089015260c094850151151594909701939093525050509386019390860190600101611192565b509098975050505050505050565b87815260e06020820152600061124b60e0830189611125565b87604084015282810360608401526112638188611125565b6001600160a01b03969096166080840152505091151560a0830152151560c090910152949350505050565b6000600182016112ae57634e487b7160e01b600052601160045260246000fd5b5060010190565b600181811c908216806112c957607f821691505b6020821081036112e957634e487b7160e01b600052602260045260246000fd5b50919050565b601f82111561133957600081815260208120601f850160051c810160208610156113165750805b601f850160051c820191505b8181101561133557828155600101611322565b5050505b505050565b815167ffffffffffffffff81111561135857611358610f75565b61136c8161136684546112b5565b846112ef565b602080601f8311600181146113a157600084156113895750858301515b600019600386901b1c1916600185901b178555611335565b600085815260208120601f198616915b828110156113d0578886015182559484019460019091019084016113b1565b50858210156113ee5787850151600019600388901b60f8161c191681555b5050505050600190811b01905550565b84815260a06020820152600061141760a0830186611125565b6040838101959095528281036060840152600b81526a496e2050726f677265737360a81b60208201526001600160a01b0393909316608090920191909152500192915050565b60006020828403121561146f57600080fd5b5051919050565b60208082526026908201527fed839cec8aa4ed81aceab08020eca1b4ec9eaced9598eca78020ec958aec8ab56040820152653ae2e23ae2e960d21b606082015260800190565b60208082526023908201527fed839cec8aa4ed81ac20ec868cec9ca0ec9e90eab08020ec9584eb8b99eb8b886040820152623ae2e960ea1b606082015260800190565b8281526040602082015260006115186040830184611125565b949350505050565b634e487b7160e01b600052603260045260246000fdfea2646970667358221220bc472427b485c448694665ddfb1d7679d8e007657f3e4b274c43933c6f191a2364736f6c63430008140033",
  "devdoc": {
    "kind": "dev",
    "methods": {
      "changeTaskStatus(uint256,string)": {
        "params": {
          "_id": "  ID",
          "_status": "  (\"In Progress\"  \"Completed\")"
        }
      },
      "constructor": {
        "params": {
          "_tokenAddress": "  "
        }
      },
      "createTask(string,uint256)": {
        "params": {
          "_dueDate": "  ()",
          "_name": " "
        }
      },
      "deleteTask(uint256)": {
        "params": {
          "_id": "  ID"
        }
      },
      "getAllTasks()": {
        "returns": {
          "_0": "  "
        }
      },
      "getUserTasks(address)": {
        "params": {
          "_user": " "
        },
        "returns": {
          "_0": "  "
        }
      }
    },
    "title": "  ",
    "version": 1
  },
  "userdoc": {
    "kind": "user",
    "methods": {
      "changeTaskStatus(uint256,string)": {
        "notice": "   "
      },
      "constructor": {
        "notice": " "
      },
      "createTask(string,uint256)": {
        "notice": "   "
      },
      "deleteTask(uint256)": {
        "notice": "  "
      },
      "getAllTasks()": {
        "notice": "   "
      },
      "getUserTasks(address)": {
        "notice": "   "
      }
    },
    "notice": "  , ,     ",
    "version": 1
  },
  "storageLayout": {
    "storage": [
      {
        "astId": 956,
        "contract": "contracts/TaskContract.sol:TaskContract",
        "label": "taskCount",
        "offset": 0,
        "slot": "0",
        "type": "t_uint256"
      },
      {
        "astId": 961,
        "contract": "contracts/TaskContract.sol:TaskContract",
        "label": "tasks",
        "offset": 0,
        "slot": "1",
        "type": "t_mapping(t_uint256,t_struct(Task)953_storage)"
      },
      {
        "astId": 966,
        "contract": "contracts/TaskContract.sol:TaskContract",
        "label": "userTasks",
        "offset": 0,
        "slot": "2",
        "type": "t_mapping(t_address,t_array(t_uint256)dyn_storage)"
      },
      {
        "astId": 969,
        "contract": "contracts/TaskContract.sol:TaskContract",
        "label": "taskToken",
        "offset": 0,
        "slot": "3",
        "type": "t_contract(TaskToken)1496"
      }
    ],
    "types": {
      "t_address": {
        "encoding": "inplace",
        "label": "address",
        "numberOfBytes": "20"
      },
      "t_array(t_uint256)dyn_storage": {
        "base": "t_uint256",
        "encoding": "dynamic_array",
        "label": "uint256[]",
        "numberOfBytes": "32"
      },
      "t_bool": {
        "encoding": "inplace",
        "label": "bool",
        "numberOfBytes": "1"
      },
      "t_contract(TaskToken)1496": {
        "encoding": "inplace",
        "label": "contract TaskToken",
        "numberOfBytes": "20"
      },
      "t_mapping(t_address,t_array(t_uint256)dyn_storage)": {
        "encoding": "mapping",
        "key": "t_address",
        "label": "mapping(address => uint256[])",
        "numberOfBytes": "32",
        "value": "t_array(t_uint256)dyn_storage"
      },
      "t_mapping(t_uint256,t_struct(Task)953_storage)": {
        "encoding": "mapping",
        "key": "t_uint256",
        "label": "mapping(uint256 => struct TaskContract.Task)",
        "numberOfBytes": "32",
        "value": "t_struct(Task)953_storage"
      },
      "t_string_storage": {
        "encoding": "bytes",
        "label": "string",
        "numberOfBytes": "32"
      },
      "t_struct(Task)953_storage": {
        "encoding": "inplace",
        "label": "struct TaskContract.Task",
        "members": [
          {
            "astId": 940,
            "contract": "contracts/TaskContract.sol:TaskContract",
            "label": "id",
            "offset": 0,
            "slot": "0",
            "type": "t_uint256"
          },
          {
            "astId": 942,
            "contract": "contracts/TaskContract.sol:TaskContract",
            "label": "name",
            "offset": 0,
            "slot": "1",
            "type": "t_string_storage"
          },
          {
            "astId": 944,
            "contract": "contracts/TaskContract.sol:TaskContract",
            "label": "dueDate",
            "offset": 0,
            "slot": "2",
            "type": "t_uint256"
          },
          {
            "astId": 946,
            "contract": "contracts/TaskContract.sol:TaskContract",
            "label": "status",
            "offset": 0,
            "slot": "3",
            "type": "t_string_storage"
          },
          {
            "astId": 948,
            "contract": "contracts/TaskContract.sol:TaskContract",
            "label": "owner",
            "offset": 0,
            "slot": "4",
            "type": "t_address"
          },
          {
            "astId": 950,
            "contract": "contracts/TaskContract.sol:TaskContract",
            "label": "isDeleted",
            "offset": 20,
            "slot": "4",
            "type": "t_bool"
          },
          {
            "astId": 952,
            "contract": "contracts/TaskContract.sol:TaskContract",
            "label": "isRewarded",
            "offset": 21,
            "slot": "4",
            "type": "t_bool"
          }
        ],
        "numberOfBytes": "160"
      },
      "t_uint256": {
        "encoding": "inplace",
        "label": "uint256",
        "numberOfBytes": "32"
      }
    }
  }
}